S0100000377365676D656E742E73726563EA
S11300000C942A000C9434000C9434000C943400A6
S11300100C9434000C9434000C9434000C9434008C
S11300200C9434000C9434000C9434000C9434007C
S11300300C9434000C9434000C9434000C9434006C
S11300400C9434000C9434000C9434000C9434005C
S11300500C94340011241FBECFE5D8E0DEBFCDBF21
S11300600E9436000C946E000C94000081B38F60E3
S113007081BB84B38F6084BBA1E0B0E020E030E0BA
S1130080F0E0E0E071E060E080E090E0232BA9F490
S113009082BB2FE739EA43E0215030404040E1F78A
S11300A000C00000572F462F8930910511F05F2FB3
S11300B04E2F252F342F01960DC0AA30B1052CF4F4
S11300C0A5BB11962F2F3E2F05C015BAA1E0B0E0B5
S11300D02F2F3E2F8A309105CCF2D6CFF894FFCF44
S9030000FC
