:100000000C942A000C943F000C943F000C943F0089
:100010000C943F000C943F000C943F000C943F0064
:100020000C943F000C943F000C943F000C943F0054
:100030000C943F000C943F000C943F000C943F0044
:100040000C943F000C943F000C943F000C943F0034
:100050000C943F0011241FBECFE5D8E0DEBFCDBF1A
:1000600010E0A0E6B0E0EEE7F1E002C005900D92EE
:10007000AA36B107D9F70E9441000C94BD000C9438
:100080000000CF93DF93CDB7DEB72A970FB6F89471
:10009000DEBF0FBECDBF8AE0E0E6F0E0DE011196E4
:1000A00001900D928A95E1F787B3876087BB84B38F
:1000B0008F6784BB9E01255F3F4F8E010F5F1F4FEF
:1000C000C02ED12E74E062E091E0E02EF12EA80166
:1000D00051C078BBDA018C9185BBBFEF80E7A2E00D
:1000E000B1508040A040E1F700C0000088B318BACA
:1000F000AFE1BEE41197F1F700C0000068BBD50185
:100100008C9185BBBFEF80E7A2E0B1508040A0405A
:10011000E1F700C0000088B318BAAFE1BEE4119760
:10012000F1F700C0000098BB819185BBBFEF80E76D
:10013000A2E0B1508040A040E1F700C0000088B3C9
:1001400018BAAFE1BEE41197F1F700C00000E21762
:10015000F30709F0BECFBFEFAB1ABB0A2A153B0568
:1001600019F0EE2DFF2DB5CF4F5F5F4F42175307AC
:0E01700009F4ADCFAC2CBD2CF4CFF894FFCF2A
:0A017E003F065B4F666D7D07FF6FC3
:00000001FF
