:100000000C942A000C9434000C9434000C943400AA
:100010000C9434000C9434000C9434000C94340090
:100020000C9434000C9434000C9434000C94340080
:100030000C9434000C9434000C9434000C94340070
:100040000C9434000C9434000C9434000C94340060
:100050000C94340011241FBECFE5D8E0DEBFCDBF25
:100060000E9436000C94E8000C94000084B314BA8B
:1000700087B38FEF87BB6FEF70E0989BFECF80E078
:1000800090E038B3AB01082E02C0440F551F0A940C
:10009000E2F7242F2095232B28BB2FEF32E547E0F2
:1000A000215030404040E1F700C000000196893007
:1000B000910539F780E090E087309105B4F448B3BA
:1000C0009B01082E02C0220F331F0A94E2F7242B53
:1000D00028BB5FEFE2E527E05150E0402040E1F728
:1000E00000C0000028B318BA6DC048B39B01082EA9
:1000F00002C0220F331F0A94E2F7242B28BB3FEFE4
:1001000042E557E0315040405040E1F700C0000068
:1001100028B318BAEFEF22E537E0E1502040304035
:10012000E1F700C0000027E030E0E8B3AB01022EA9
:1001300002C0440F551F0A94E2F74E2B48BB4FEF05
:1001400052E5E7E041505040E040E1F700C00000D8
:1001500048B318BA2150310940F721E030E0273088
:100160003105B4F4E8B3AB01022E02C055954795B2
:100170000A94E2F74E2B48BB5FEFE2E547E05150AF
:10018000E0404040E1F700C0000048B318BA15C095
:10019000E8B3AB01022E02C0559547950A94E2F7E9
:1001A0004E2B48BB5FEFE2E547E05150E040404056
:1001B000E1F700C0000048B318BA2F5F3F4F283066
:1001C000310569F601968830910509F075CF55CF54
:0401D000F894FFCFD1
:00000001FF
