S0120000426C696E6B5F7A696E632E737265630F
S11300000C942A000C943F000C943F000C943F0085
S11300100C943F000C943F000C943F000C943F0060
S11300200C943F000C943F000C943F000C943F0050
S11300300C943F000C943F000C943F000C943F0040
S11300400C943F000C943F000C943F000C943F0030
S11300500C943F0011241FBECFE5D8E0DEBFCDBF16
S113006010E0A0E6B0E0E2E3F1E002C005900D92FA
S1130070AA36B107D9F70E9441000C9497000C945A
S11300800000CF93DF93CDB7DEB764970FB6F89433
S1130090DEBF0FBECDBF84B38FEF84BB8AB38F673F
S11300A08ABB87B38F6787BB8AE0E0E6F0E0DE01B6
S11300B0119601900D928A95E1F78AE0E0E6F0E06E
S11300C0DE011B9601900D928A95E1F7BE01655FF2
S11300D07F4FAE014B5E5F4F1AE030E0F62E072FE4
S11300E0DE01119621C02C912BBB2FEFE9E6F8E13C
S11300F02150E040F040E1F700C00000019799F77B
S1130100EF2DF02F819188BB2FEF80E792E02150F3
S113011080409040E1F700C00000E417F50791F734
S11301201196A617B707E1F2812F932FDCCFF8942D
S1050130FFCFFB
S10D01323F065B4F666D7D07FF6F0B
S9030000FC
