S01700004763634170706C69636174696F6E312E737265635B
S11300000C942A000C9434000C9434000C943400A6
S11300100C9434000C9434000C9434000C9434008C
S11300200C9434000C9434000C9434000C9434007C
S11300300C9434000C9434000C9434000C9434006C
S11300400C9434000C9434000C9434000C9434005C
S11300500C94340011241FBECFE5D8E0DEBFCDBF21
S11300600E9436000C949B000C94000084B314BAD4
S113007087B38FEF87BB61E070E0989BFECF80E091
S113008090E087309105E4F448B39B01082E02C048
S1130090220F331F0A94E2F7242B28BB2FE73AE1FF
S11300A046E0215030404040E1F700C0000028B352
S11300B018BAEFE3FCE93197F1F700C0000035C04E
S11300C048B39B01082E02C0220F331F0A94E2F7A3
S11300D0242B28BBFFE72AE136E0F15020403040D2
S11300E0E1F700C0000027E030E048B318BAEFE3BE
S11300F0FCE93197F1F700C00000E8B32150310961
S1130100AB01022E02C0440F551F0A94E2F74E2B96
S113011048BBFFE74AE156E0F15040405040E1F768
S113012000C000002115310501F7019688309105C2
S10D013009F0A7CFA2CFF894FFCF87
S9030000FC
